{
  "_format": "hh-sol-artifact-1",
  "contractName": "Accountancy",
  "sourceName": "contracts/Accountancy.sol",
  "abi": [
    {
      "inputs": [],
      "stateMutability": "nonpayable",
      "type": "constructor"
    },
    {
      "inputs": [
        {
          "internalType": "uint256",
          "name": "item",
          "type": "uint256"
        },
        {
          "internalType": "string",
          "name": "detail",
          "type": "string"
        }
      ],
      "name": "addList",
      "outputs": [],
      "stateMutability": "nonpayable",
      "type": "function"
    },
    {
      "inputs": [],
      "name": "getList",
      "outputs": [
        {
          "components": [
            {
              "internalType": "uint256",
              "name": "uid",
              "type": "uint256"
            },
            {
              "internalType": "uint256",
              "name": "amount",
              "type": "uint256"
            },
            {
              "internalType": "string",
              "name": "sender",
              "type": "string"
            }
          ],
          "internalType": "struct Accountancy.List[]",
          "name": "",
          "type": "tuple[]"
        }
      ],
      "stateMutability": "view",
      "type": "function"
    },
    {
      "inputs": [
        {
          "internalType": "uint256",
          "name": "index",
          "type": "uint256"
        }
      ],
      "name": "remove",
      "outputs": [],
      "stateMutability": "nonpayable",
      "type": "function"
    }
  ],
  "bytecode": "0x608060405234801561001057600080fd5b5060008081905550610a02806100276000396000f3fe608060405234801561001057600080fd5b50600436106100415760003560e01c80634cc8221514610046578063942b765a14610062578063d342ae2114610080575b600080fd5b610060600480360381019061005b91906104c9565b61009c565b005b61006a610174565b60405161007791906106b0565b60405180910390f35b61009a60048036038101906100959190610807565b610279565b005b60018080805490506100ae9190610892565b815481106100bf576100be6108c6565b5b9060005260206000209060030201600182815481106100e1576100e06108c6565b5b90600052602060002090600302016000820154816000015560018201548160010155600282018160020190805461011790610924565b61012292919061030f565b50905050600180548061013857610137610955565b5b6001900381819060005260206000209060030201600080820160009055600182016000905560028201600061016d919061039c565b5050905550565b60606001805480602002602001604051908101604052809291908181526020016000905b82821015610270578382906000526020600020906003020160405180606001604052908160008201548152602001600182015481526020016002820180546101df90610924565b80601f016020809104026020016040519081016040528092919081815260200182805461020b90610924565b80156102585780601f1061022d57610100808354040283529160200191610258565b820191906000526020600020905b81548152906001019060200180831161023b57829003601f168201915b50505050508152505081526020019060010190610198565b50505050905090565b600160405180606001604052806000548152602001848152602001838152509080600181540180825580915050600190039060005260206000209060030201600090919091909150600082015181600001556020820151816001015560408201518160020190805190602001906102f19291906103dc565b50505060008081548092919061030690610984565b91905055505050565b82805461031b90610924565b90600052602060002090601f01602090048101928261033d576000855561038b565b82601f1061034e578054855561038b565b8280016001018555821561038b57600052602060002091601f016020900482015b8281111561038a57825482559160010191906001019061036f565b5b5090506103989190610462565b5090565b5080546103a890610924565b6000825580601f106103ba57506103d9565b601f0160209004906000526020600020908101906103d89190610462565b5b50565b8280546103e890610924565b90600052602060002090601f01602090048101928261040a5760008555610451565b82601f1061042357805160ff1916838001178555610451565b82800160010185558215610451579182015b82811115610450578251825591602001919060010190610435565b5b50905061045e9190610462565b5090565b5b8082111561047b576000816000905550600101610463565b5090565b6000604051905090565b600080fd5b600080fd5b6000819050919050565b6104a681610493565b81146104b157600080fd5b50565b6000813590506104c38161049d565b92915050565b6000602082840312156104df576104de610489565b5b60006104ed848285016104b4565b91505092915050565b600081519050919050565b600082825260208201905092915050565b6000819050602082019050919050565b61052b81610493565b82525050565b600081519050919050565b600082825260208201905092915050565b60005b8381101561056b578082015181840152602081019050610550565b8381111561057a576000848401525b50505050565b6000601f19601f8301169050919050565b600061059c82610531565b6105a6818561053c565b93506105b681856020860161054d565b6105bf81610580565b840191505092915050565b60006060830160008301516105e26000860182610522565b5060208301516105f56020860182610522565b506040830151848203604086015261060d8282610591565b9150508091505092915050565b600061062683836105ca565b905092915050565b6000602082019050919050565b6000610646826104f6565b6106508185610501565b93508360208202850161066285610512565b8060005b8581101561069e578484038952815161067f858261061a565b945061068a8361062e565b925060208a01995050600181019050610666565b50829750879550505050505092915050565b600060208201905081810360008301526106ca818461063b565b905092915050565b600080fd5b600080fd5b7f4e487b7100000000000000000000000000000000000000000000000000000000600052604160045260246000fd5b61071482610580565b810181811067ffffffffffffffff82111715610733576107326106dc565b5b80604052505050565b600061074661047f565b9050610752828261070b565b919050565b600067ffffffffffffffff821115610772576107716106dc565b5b61077b82610580565b9050602081019050919050565b82818337600083830152505050565b60006107aa6107a584610757565b61073c565b9050828152602081018484840111156107c6576107c56106d7565b5b6107d1848285610788565b509392505050565b600082601f8301126107ee576107ed6106d2565b5b81356107fe848260208601610797565b91505092915050565b6000806040838503121561081e5761081d610489565b5b600061082c858286016104b4565b925050602083013567ffffffffffffffff81111561084d5761084c61048e565b5b610859858286016107d9565b9150509250929050565b7f4e487b7100000000000000000000000000000000000000000000000000000000600052601160045260246000fd5b600061089d82610493565b91506108a883610493565b9250828210156108bb576108ba610863565b5b828203905092915050565b7f4e487b7100000000000000000000000000000000000000000000000000000000600052603260045260246000fd5b7f4e487b7100000000000000000000000000000000000000000000000000000000600052602260045260246000fd5b6000600282049050600182168061093c57607f821691505b60208210810361094f5761094e6108f5565b5b50919050565b7f4e487b7100000000000000000000000000000000000000000000000000000000600052603160045260246000fd5b600061098f82610493565b91507fffffffffffffffffffffffffffffffffffffffffffffffffffffffffffffffff82036109c1576109c0610863565b5b60018201905091905056fea26469706673582212200f6458cd0d9135ea2232cea1b973fd9085765a3e8a89fca65975d442ce02a11864736f6c634300080e0033",
  "linkReferences": {},
  "deployedLinkReferences": {}
}